:020000040000FA
:020000000E28C8
:040002000034003492
:080008002000931F0632931340
:0C00100000303200990021009313090019
:04001C0023008C0130
:1000200021000C108C100C1122000C113C005530DA
:100030008F00AA308F000F103D001E3090001D3041
:1000400091003C000F14210093170B178B171030F1
:1000500032009900640032001B1EFE33143027006A
:100060009A009A1729009E0101309F00980199017A
:100070009A01DC309B00D7309C0001309D009E1718
:100080001A3020009F007D309E009D011F15963084
:10009000200091106400911CFD33FF3E031DF933D5
:0800A00022000C156400FE3380
:020000040001F9
:02000E00EA3FC7
:020010003F3F70
:02001200FF1FCE
:02001400FF3FAC
:00000001FF
